{
  "contractName": "TmyBridge",
  "abi": [
    {
      "inputs": [
        {
          "internalType": "address",
          "name": "token",
          "type": "address"
        }
      ],
      "stateMutability": "nonpayable",
      "type": "constructor"
    },
    {
      "anonymous": false,
      "inputs": [
        {
          "indexed": false,
          "internalType": "address",
          "name": "from",
          "type": "address"
        },
        {
          "indexed": false,
          "internalType": "address",
          "name": "to",
          "type": "address"
        },
        {
          "indexed": false,
          "internalType": "uint256",
          "name": "amount",
          "type": "uint256"
        },
        {
          "indexed": false,
          "internalType": "uint256",
          "name": "date",
          "type": "uint256"
        }
      ],
      "name": "Transfer",
      "type": "event"
    },
    {
      "inputs": [
        {
          "internalType": "address",
          "name": "to",
          "type": "address"
        },
        {
          "internalType": "uint256",
          "name": "amount",
          "type": "uint256"
        }
      ],
      "name": "burn",
      "outputs": [],
      "stateMutability": "nonpayable",
      "type": "function"
    },
    {
      "inputs": [
        {
          "internalType": "address",
          "name": "to",
          "type": "address"
        },
        {
          "internalType": "uint256",
          "name": "amount",
          "type": "uint256"
        }
      ],
      "name": "mint",
      "outputs": [],
      "stateMutability": "nonpayable",
      "type": "function"
    },
    {
      "inputs": [],
      "name": "token",
      "outputs": [
        {
          "internalType": "contract TTS20",
          "name": "",
          "type": "address"
        }
      ],
      "stateMutability": "view",
      "type": "function"
    }
  ],
  "bytecode": "0x608060405234801561001057600080fd5b5060405161058a38038061058a833981810160405281019061003291906100dd565b80806000806101000a81548173ffffffffffffffffffffffffffffffffffffffff021916908373ffffffffffffffffffffffffffffffffffffffff160217905550505061010a565b600080fd5b600073ffffffffffffffffffffffffffffffffffffffff82169050919050565b60006100aa8261007f565b9050919050565b6100ba8161009f565b81146100c557600080fd5b50565b6000815190506100d7816100b1565b92915050565b6000602082840312156100f3576100f261007a565b5b6000610101848285016100c8565b91505092915050565b610471806101196000396000f3fe608060405234801561001057600080fd5b50600436106100415760003560e01c806340c10f19146100465780639dc29fac14610062578063fc0c546a1461007e575b600080fd5b610060600480360381019061005b91906102f5565b61009c565b005b61007c600480360381019061007791906102f5565b61016a565b005b610086610238565b6040516100939190610394565b60405180910390f35b60008054906101000a900473ffffffffffffffffffffffffffffffffffffffff1673ffffffffffffffffffffffffffffffffffffffff16634e6ec24783836040518363ffffffff1660e01b81526004016100f79291906103cd565b600060405180830381600087803b15801561011157600080fd5b505af1158015610125573d6000803e3d6000fd5b505050507f9ed053bb818ff08b8353cd46f78db1f0799f31c9e4458fdb425c10eccd2efc443383834260405161015e94939291906103f6565b60405180910390a15050565b60008054906101000a900473ffffffffffffffffffffffffffffffffffffffff1673ffffffffffffffffffffffffffffffffffffffff16636161eb1883836040518363ffffffff1660e01b81526004016101c59291906103cd565b600060405180830381600087803b1580156101df57600080fd5b505af11580156101f3573d6000803e3d6000fd5b505050507f9ed053bb818ff08b8353cd46f78db1f0799f31c9e4458fdb425c10eccd2efc443383834260405161022c94939291906103f6565b60405180910390a15050565b60008054906101000a900473ffffffffffffffffffffffffffffffffffffffff1681565b600080fd5b600073ffffffffffffffffffffffffffffffffffffffff82169050919050565b600061028c82610261565b9050919050565b61029c81610281565b81146102a757600080fd5b50565b6000813590506102b981610293565b92915050565b6000819050919050565b6102d2816102bf565b81146102dd57600080fd5b50565b6000813590506102ef816102c9565b92915050565b6000806040838503121561030c5761030b61025c565b5b600061031a858286016102aa565b925050602061032b858286016102e0565b9150509250929050565b6000819050919050565b600061035a61035561035084610261565b610335565b610261565b9050919050565b600061036c8261033f565b9050919050565b600061037e82610361565b9050919050565b61038e81610373565b82525050565b60006020820190506103a96000830184610385565b92915050565b6103b881610281565b82525050565b6103c7816102bf565b82525050565b60006040820190506103e260008301856103af565b6103ef60208301846103be565b9392505050565b600060808201905061040b60008301876103af565b61041860208301866103af565b61042560408301856103be565b61043260608301846103be565b9594505050505056fea2646970667358221220e638120f76a7c5beaa7342187dfe83008234d62ce517110ed1cc0b89a080621e64736f6c63430008110033",
  "immutableReferences": {},
  "source": "// SPDX-License-Identifier: GPL-3.0\r\npragma solidity >=0.7.0 <0.9.0;\r\n\r\nimport \"./BaseBridge.sol\";\r\n\r\ncontract TmyBridge is BaseBridge\r\n{\r\n    constructor(address token) BaseBridge(token){}\r\n}",
  "sourcePath": "C:\\Users\\SpinF\\Desktop\\tmy-bridge-contracts\\contracts\\TmyBridge.sol",
  "compiler": {
    "name": "solc",
    "version": "0.8.17+commit.8df45f5f.Emscripten.clang"
  },
  "schemaVersion": "3.4.10",
  "updatedAt": "2022-11-01T17:05:43.235Z",
  "networkType": "ethereum",
  "devdoc": {
    "kind": "dev",
    "methods": {},
    "version": 1
  },
  "userdoc": {
    "kind": "user",
    "methods": {},
    "version": 1
  }
}